{
  "contractName": "Token",
  "abi": [
    {
      "inputs": [],
      "stateMutability": "nonpayable",
      "type": "constructor"
    },
    {
      "anonymous": false,
      "inputs": [
        {
          "indexed": true,
          "internalType": "address",
          "name": "_owner",
          "type": "address"
        },
        {
          "indexed": true,
          "internalType": "address",
          "name": "_spender",
          "type": "address"
        },
        {
          "indexed": false,
          "internalType": "uint256",
          "name": "_value",
          "type": "uint256"
        }
      ],
      "name": "Approval",
      "type": "event"
    },
    {
      "anonymous": false,
      "inputs": [
        {
          "indexed": true,
          "internalType": "address",
          "name": "_from",
          "type": "address"
        },
        {
          "indexed": true,
          "internalType": "address",
          "name": "_to",
          "type": "address"
        },
        {
          "indexed": false,
          "internalType": "uint256",
          "name": "_value",
          "type": "uint256"
        }
      ],
      "name": "Transfer",
      "type": "event"
    },
    {
      "inputs": [],
      "name": "name",
      "outputs": [
        {
          "internalType": "string",
          "name": "",
          "type": "string"
        }
      ],
      "stateMutability": "view",
      "type": "function"
    },
    {
      "inputs": [],
      "name": "symbol",
      "outputs": [
        {
          "internalType": "string",
          "name": "",
          "type": "string"
        }
      ],
      "stateMutability": "view",
      "type": "function"
    },
    {
      "inputs": [],
      "name": "decimals",
      "outputs": [
        {
          "internalType": "uint8",
          "name": "",
          "type": "uint8"
        }
      ],
      "stateMutability": "view",
      "type": "function"
    },
    {
      "inputs": [],
      "name": "totalSupply",
      "outputs": [
        {
          "internalType": "uint256",
          "name": "",
          "type": "uint256"
        }
      ],
      "stateMutability": "view",
      "type": "function"
    },
    {
      "inputs": [
        {
          "internalType": "address",
          "name": "_owner",
          "type": "address"
        }
      ],
      "name": "balanceOf",
      "outputs": [
        {
          "internalType": "uint256",
          "name": "balance",
          "type": "uint256"
        }
      ],
      "stateMutability": "view",
      "type": "function"
    },
    {
      "inputs": [
        {
          "internalType": "address",
          "name": "_to",
          "type": "address"
        },
        {
          "internalType": "uint256",
          "name": "_value",
          "type": "uint256"
        }
      ],
      "name": "transfer",
      "outputs": [
        {
          "internalType": "bool",
          "name": "success",
          "type": "bool"
        }
      ],
      "stateMutability": "nonpayable",
      "type": "function"
    },
    {
      "inputs": [],
      "name": "lastTransfers",
      "outputs": [
        {
          "internalType": "address[]",
          "name": "",
          "type": "address[]"
        },
        {
          "internalType": "address[]",
          "name": "",
          "type": "address[]"
        },
        {
          "internalType": "uint256[]",
          "name": "",
          "type": "uint256[]"
        }
      ],
      "stateMutability": "view",
      "type": "function"
    },
    {
      "inputs": [],
      "name": "topTen",
      "outputs": [
        {
          "internalType": "address[]",
          "name": "",
          "type": "address[]"
        },
        {
          "internalType": "uint256[]",
          "name": "",
          "type": "uint256[]"
        }
      ],
      "stateMutability": "view",
      "type": "function"
    }
  ],
  "bytecode": "0x608060405234801561001057600080fd5b50336000806101000a81548173ffffffffffffffffffffffffffffffffffffffff021916908373ffffffffffffffffffffffffffffffffffffffff1602179055506040518060400160405280600581526020017f546f6b656e0000000000000000000000000000000000000000000000000000008152506001908051906020019061009c92919061029a565b506040518060400160405280600381526020017f544f4b0000000000000000000000000000000000000000000000000000000000815250600290805190602001906100e892919061029a565b506008600360006101000a81548160ff021916908360ff16021790555064019b45a50060048190555060008054906101000a900473ffffffffffffffffffffffffffffffffffffffff166008600080815260200190815260200160002060006101000a81548173ffffffffffffffffffffffffffffffffffffffff021916908373ffffffffffffffffffffffffffffffffffffffff1602179055506000600660008060009054906101000a900473ffffffffffffffffffffffffffffffffffffffff1673ffffffffffffffffffffffffffffffffffffffff1673ffffffffffffffffffffffffffffffffffffffff16815260200190815260200160002081905550600960045490806001815401808255809150506001900390600052602060002001600090919091909150556001600760008060009054906101000a900473ffffffffffffffffffffffffffffffffffffffff1673ffffffffffffffffffffffffffffffffffffffff1673ffffffffffffffffffffffffffffffffffffffff16815260200190815260200160002060006101000a81548160ff0219169083151502179055506001600b81905550610337565b828054600181600116156101000203166002900490600052602060002090601f016020900481019282601f106102db57805160ff1916838001178555610309565b82800160010185558215610309579182015b828111156103085782518255916020019190600101906102ed565b5b509050610316919061031a565b5090565b5b8082111561033357600081600090555060010161031b565b5090565b61100280620003476000396000f3fe608060405234801561001057600080fd5b50600436106100885760003560e01c80634b2d18911161005b5780634b2d1891146101f657806370a08231146102e557806395d89b411461033d578063a9059cbb146103c057610088565b806306fdde031461008d57806317a8cd731461011057806318160ddd146101b7578063313ce567146101d5575b600080fd5b610095610424565b6040518080602001828103825283818151815260200191508051906020019080838360005b838110156100d55780820151818401526020810190506100ba565b50505050905090810190601f1680156101025780820380516001836020036101000a031916815260200191505b509250505060405180910390f35b6101186104c6565b604051808060200180602001838103835285818151815260200191508051906020019060200280838360005b8381101561015f578082015181840152602081019050610144565b50505050905001838103825284818151815260200191508051906020019060200280838360005b838110156101a1578082015181840152602081019050610186565b5050505090500194505050505060405180910390f35b6101bf6106d5565b6040518082815260200191505060405180910390f35b6101dd6106df565b604051808260ff16815260200191505060405180910390f35b6101fe6106f6565b60405180806020018060200180602001848103845287818151815260200191508051906020019060200280838360005b8381101561024957808201518184015260208101905061022e565b50505050905001848103835286818151815260200191508051906020019060200280838360005b8381101561028b578082015181840152602081019050610270565b50505050905001848103825285818151815260200191508051906020019060200280838360005b838110156102cd5780820151818401526020810190506102b2565b50505050905001965050505050505060405180910390f35b610327600480360360208110156102fb57600080fd5b81019080803573ffffffffffffffffffffffffffffffffffffffff1690602001909291905050506109cf565b6040518082815260200191505060405180910390f35b610345610a2f565b6040518080602001828103825283818151815260200191508051906020019080838360005b8381101561038557808201518184015260208101905061036a565b50505050905090810190601f1680156103b25780820380516001836020036101000a031916815260200191505b509250505060405180910390f35b61040c600480360360408110156103d657600080fd5b81019080803573ffffffffffffffffffffffffffffffffffffffff16906020019092919080359060200190929190505050610ad1565b60405180821515815260200191505060405180910390f35b606060018054600181600116156101000203166002900480601f0160208091040260200160405190810160405280929190818152602001828054600181600116156101000203166002900480156104bc5780601f10610491576101008083540402835291602001916104bc565b820191906000526020600020905b81548152906001019060200180831161049f57829003601f168201915b5050505050905090565b6060806060600a67ffffffffffffffff811180156104e357600080fd5b506040519080825280602002602001820160405280156105125781602001602082028036833780820191505090505b5090506060600a67ffffffffffffffff8111801561052f57600080fd5b5060405190808252806020026020018201604052801561055e5781602001602082028036833780820191505090505b5090506000600a600980549050101561057e576009805490509050610583565b600a90505b600069d3c21bcecceda0ffffff905060005b828110156106c6576000806000905060005b6009805490508110156106535781600982815481106105c257fe5b90600052602060002001541180156105f0575084600982815481106105e357fe5b9060005260206000200154105b15610646576008600082815260200190815260200160002060009054906101000a900473ffffffffffffffffffffffffffffffffffffffff1692506009818154811061063857fe5b906000526020600020015491505b80806001019150506105a7565b508093508187848151811061066457fe5b602002602001019073ffffffffffffffffffffffffffffffffffffffff16908173ffffffffffffffffffffffffffffffffffffffff1681525050808684815181106106ab57fe5b60200260200101818152505050508080600101915050610595565b50838395509550505050509091565b6000600454905090565b6000600360009054906101000a900460ff16905090565b606080606080600a67ffffffffffffffff8111801561071457600080fd5b506040519080825280602002602001820160405280156107435781602001602082028036833780820191505090505b5090506060600a67ffffffffffffffff8111801561076057600080fd5b5060405190808252806020026020018201604052801561078f5781602001602082028036833780820191505090505b5090506060600a67ffffffffffffffff811180156107ac57600080fd5b506040519080825280602002602001820160405280156107db5781602001602082028036833780820191505090505b5090506000600a60058054905010156107fb576005805490509050610800565b600a90505b60005b818110156109bc57610813610f7f565b600582600160058054905003038154811061082a57fe5b90600052602060002090600302016040518060600160405290816000820160009054906101000a900473ffffffffffffffffffffffffffffffffffffffff1673ffffffffffffffffffffffffffffffffffffffff1673ffffffffffffffffffffffffffffffffffffffff1681526020016001820160009054906101000a900473ffffffffffffffffffffffffffffffffffffffff1673ffffffffffffffffffffffffffffffffffffffff1673ffffffffffffffffffffffffffffffffffffffff1681526020016002820154815250509050806000015186838151811061090c57fe5b602002602001019073ffffffffffffffffffffffffffffffffffffffff16908173ffffffffffffffffffffffffffffffffffffffff1681525050806020015185838151811061095757fe5b602002602001019073ffffffffffffffffffffffffffffffffffffffff16908173ffffffffffffffffffffffffffffffffffffffff168152505080604001518483815181106109a257fe5b602002602001018181525050508080600101915050610803565b5083838396509650965050505050909192565b60006009600660008473ffffffffffffffffffffffffffffffffffffffff1673ffffffffffffffffffffffffffffffffffffffff1681526020019081526020016000205481548110610a1d57fe5b90600052602060002001549050919050565b606060028054600181600116156101000203166002900480601f016020809104026020016040519081016040528092919081815260200182805460018160011615610100020316600290048015610ac75780601f10610a9c57610100808354040283529160200191610ac7565b820191906000526020600020905b815481529060010190602001808311610aaa57829003601f168201915b5050505050905090565b600081806009600660003373ffffffffffffffffffffffffffffffffffffffff1673ffffffffffffffffffffffffffffffffffffffff1681526020019081526020016000205481548110610b2157fe5b90600052602060002001541015610ba0576040517f08c379a00000000000000000000000000000000000000000000000000000000081526004018080602001828103825260138152602001807f43616c6c657220686173206e6f2066756e64730000000000000000000000000081525060200191505060405180910390fd5b600760008573ffffffffffffffffffffffffffffffffffffffff1673ffffffffffffffffffffffffffffffffffffffff16815260200190815260200160002060009054906101000a900460ff16610d17576000610bfb610f67565b9050846008600083815260200190815260200160002060006101000a81548173ffffffffffffffffffffffffffffffffffffffff021916908373ffffffffffffffffffffffffffffffffffffffff16021790555080600660008773ffffffffffffffffffffffffffffffffffffffff1673ffffffffffffffffffffffffffffffffffffffff168152602001908152602001600020819055506001600760008773ffffffffffffffffffffffffffffffffffffffff1673ffffffffffffffffffffffffffffffffffffffff16815260200190815260200160002060006101000a81548160ff021916908315150217905550600960009080600181540180825580915050600190039060005260206000200160009091909190915055505b826009600660003373ffffffffffffffffffffffffffffffffffffffff1673ffffffffffffffffffffffffffffffffffffffff1681526020019081526020016000205481548110610d6457fe5b9060005260206000200160008282540392505081905550826009600660008773ffffffffffffffffffffffffffffffffffffffff1673ffffffffffffffffffffffffffffffffffffffff1681526020019081526020016000205481548110610dc857fe5b90600052602060002001600082825401925050819055508373ffffffffffffffffffffffffffffffffffffffff163373ffffffffffffffffffffffffffffffffffffffff167fddf252ad1be2c89b69c2b068fc378daa952ba7f163c4a11628f55a4df523b3ef856040518082815260200191505060405180910390a3610e4c610f7f565b60405180606001604052803373ffffffffffffffffffffffffffffffffffffffff1681526020018673ffffffffffffffffffffffffffffffffffffffff168152602001858152509050600581908060018154018082558091505060019003906000526020600020906003020160009091909190915060008201518160000160006101000a81548173ffffffffffffffffffffffffffffffffffffffff021916908373ffffffffffffffffffffffffffffffffffffffff16021790555060208201518160010160006101000a81548173ffffffffffffffffffffffffffffffffffffffff021916908373ffffffffffffffffffffffffffffffffffffffff16021790555060408201518160020155505060019250505092915050565b6000600b600081548092919060010191905055905090565b6040518060600160405280600073ffffffffffffffffffffffffffffffffffffffff168152602001600073ffffffffffffffffffffffffffffffffffffffff16815260200160008152509056fea2646970667358221220e1f02abc545aa62775f040b07f6e7d21f8fe3979a73c846063f2cf67ccf4846464736f6c63430007000033",
  "immutableReferences": {},
  "source": "pragma solidity >=0.7.0 <0.8.0;\n\ncontract Token {\n    address owner;\n    string tokenName;\n    string tokenSymbol;\n    uint8 tokenDecimals;\n    uint256 tokenTotalSupply;\n    \n    struct Transactions {\n        address sender;\n        address receiver;\n        uint256 tokenAmount;\n    }\n    \n    Transactions[] transactions;\n    \n    mapping (address => uint256) private walletToPos;\n    mapping (address => bool) private isRegistered;\n    mapping (uint256 => address) private posToWallet;\n    uint256[] private balances;\n\n    mapping (address => mapping(address => uint256)) private allowances;\n    \n    uint private lastId;\n    \n    function getLastId() private returns (uint) {\n        return lastId++;\n    }\n    \n    // modifiers\n\n    // modifier to check if caller has funds\n    modifier hasFunds(uint256 amount) {\n        require( balances[walletToPos[msg.sender]] >= amount, \"Caller has no funds\");\n        _;\n    }\n    \n    // events\n    event Transfer(address indexed _from, address indexed _to, uint256 _value);\n    event Approval(address indexed _owner, address indexed _spender, uint256 _value);\n    \n    constructor() {\n        // when the contract is deployed, save the sender address\n        owner = msg.sender;\n        // token data\n        tokenName = \"Token\";\n        tokenSymbol = \"TOK\";\n        tokenDecimals = 8;\n        tokenTotalSupply = 69 * 100000000;\n        // initial balance of the owner\n        posToWallet[0] = owner;\n        walletToPos[owner] = 0;\n        balances.push(tokenTotalSupply);\n        isRegistered[owner] = true;\n        lastId = 1;\n    }\n    \n    function name() public view returns (string memory) {\n        return tokenName;\n    }\n    \n    function symbol() public view returns (string memory) {\n        return tokenSymbol;\n    }\n    \n    function decimals() public view returns (uint8) {\n        return tokenDecimals;\n    }\n    \n    function totalSupply() public view returns (uint256) {\n        return tokenTotalSupply;   \n    }\n\n    function balanceOf(address _owner) public view returns (uint256 balance) {\n        return balances[walletToPos[_owner]];\n    }\n    \n    function transfer(address _to, uint256 _value) public hasFunds(_value)  returns (bool success) {\n \n        if (!isRegistered[_to]){\n            uint256 id = getLastId();\n            posToWallet[id] = _to;\n            walletToPos[_to] = id;\n            isRegistered[_to] = true;\n            balances.push(0);\n        }\n        \n        balances[walletToPos[msg.sender]] -= _value;\n        balances[walletToPos[_to]] += _value;\n        emit Transfer(msg.sender, _to, _value);\n        \n        Transactions memory transferValue = Transactions(msg.sender, _to, _value);\n        transactions.push(transferValue);\n        \n        return true;\n    }\n    \n    function lastTransfers() public view returns (address[] memory, address[] memory, uint256[] memory) {\n        \n        address[] memory senders = new address[](10);\n        address[] memory receivers = new address[](10);\n        uint256[] memory amounts = new uint256[](10);\n        \n        uint256 limit;\n        \n        if (transactions.length < 10) {\n            limit = transactions.length;\n        } else {\n            limit = 10;\n        }\n        \n        for (uint256 i = 0; i < limit; i++){\n                \n            Transactions memory tempTransaction = transactions[transactions.length - 1 - i];\n                \n            senders[i] = tempTransaction.sender;\n            receivers [i] = tempTransaction.receiver;\n            amounts[i] = tempTransaction.tokenAmount;\n        }\n        return (senders, receivers, amounts);   \n    }\n    \n    function topTen() public view returns (address[] memory, uint256[] memory) {\n        \n        address[] memory owners = new address[](10);\n        uint256[] memory amounts = new uint256[](10);\n        \n        uint256 limit;\n        \n        if (balances.length < 10) {\n            limit = balances.length;\n        } else {\n            limit = 10;\n        }\n\n        uint256 lastAmount = 999999999999999999999999;\n        for (uint256 i = 0; i < limit; i++){\n            address tempOwner;\n            uint256 tempAmount = 0;\n            for (uint256 j = 0; j < balances.length; j++){    \n                if (balances[j] > tempAmount && balances[j] < lastAmount){\n                    tempOwner = posToWallet[j];\n                    tempAmount = balances[j];\n                }\n            }\n            lastAmount = tempAmount;\n            owners[i] = tempOwner;\n            amounts[i] = tempAmount;\n        }\n        return (owners, amounts);  \n    }\n\n}",
  "sourcePath": "/home/sebdev69/Documents/uvg/2021/s1/blockchain/blockchain-web3/contracts/Token.sol",
  "compiler": {
    "name": "solc",
    "version": "0.7.0+commit.9e61f92b.Emscripten.clang"
  },
  "schemaVersion": "3.3.4",
  "updatedAt": "2021-05-30T00:44:52.580Z",
  "devdoc": {
    "kind": "dev",
    "methods": {},
    "version": 1
  },
  "userdoc": {
    "kind": "user",
    "methods": {},
    "version": 1
  }
}